:020000040000FA
:1000000080315C28080008007E1480312E00161C08
:100010000A280B2813280C1C0E280F2813289E31A1
:10002000202680315A28161E162817281F280C1E35
:100030001A281B281F289E316D2680315A280B1F35
:10004000222823285A28991C262827282D288F1C47
:100050002A282B282D285A285A28191C30283128BC
:1000600037280F1C3428352837285A285A28991E33
:100070003A283B2846288F1E3E283F284628210044
:100080004D088A004C080A0080315A281A1C492859
:100090004A285A28101C4D284E285A289E3193264B
:1000A00080315A285A285A285A285A285A285A2811
:1000B0005A285A287E10090080315E288731FE2791
:1000C0008031FC008731FF278031FD003230840011
:1000D0009E3085006A3086000030870006309E31F1
:1000E0002C2680310D3084009E308500D030860073
:1000F0000030870003309E312C2680315E30840032
:10010000003085000C309E3126268031A0308400DE
:100110000030850026309E31262680317E1020005A
:100120008531702D2000C500592DFD309E31BD2632
:100130008031C0309E31BD268031200066089E315E
:10014000BD268031200064089E31BD26803120000C
:1001500062089E31BD268031FE309E31BD26803141
:100160006F2D1830210028020318B728B828482915
:100170003C3029020318BD28BE2848293C302A02F9
:100180000318C328C428482928082000C2004208B0
:10019000E6000A30A0000030A1006608C200C301DA
:1001A0004208A2004308A30093318C238031200031
:1001B0002008C4004408E9000A30A0000030A10073
:1001C0006608C200C3014208A2004308A30092319E
:1001D0005E22803120002008C4004408E500210090
:1001E00029082000C2004208E4000A30A0000030C4
:1001F000A1006408C200C3014208A2004308A30092
:1002000093318C23803120002008C4004408E8008A
:100210000A30A0000030A1006408C200C3014208F7
:10022000A2004308A30092315E2280312000200802
:10023000C4004408E30021002A082000C20042084C
:10024000E2007830A000F030A1006608C200420849
:10025000A20090317120803179302000A000F03070
:10026000A1006408C2004208A200903171208031D0
:100270009531E8258031FD309E31BD268031C13079
:100280009E31BD26803100309E31BD2680315429FB
:10029000FD309E31BD268031C1309E31BD2680317A
:1002A000FF309E31BD268031FE309E31BD2680312B
:1002B0006F2DFD309E31BD268031C2309E31BD266E
:1002C000803120005F089E31BD26803120005E080D
:1002D0009E31BD268031FE309E31BD2680316F2D8E
:1002E000FD309E31BD268031C3309E31BD26803128
:1002F0007C089E31BD2680317D089E31BD2680312F
:10030000FE309E31BD2680316F2D643021002802E1
:1003100003188B298C29AC2928082000C200420828
:10032000FC007A30A000F030A1007C08C200420836
:10033000A2009031712080319531E8258031FD3067
:100340009E31BD268031C4309E31BD2680310030C3
:100350009E31BD268031B829FD309E31BD268031C9
:10036000C4309E31BD268031FF309E31BD268031A4
:10037000FE309E31BD2680316F2D3D302100280298
:100380000318C329C429E42928082000C200420810
:10039000FD007B30A000F030A1007D08C2004208C3
:1003A000A2009031712080319531E8258031FD30F7
:1003B0009E31BD268031C5309E31BD268031003052
:1003C0009E31BD268031F029FD309E31BD26803121
:1003D000C5309E31BD268031FF309E31BD26803133
:1003E000FE309E31BD2680316F2DFD309E31BD2601
:1003F0008031C6309E31BD26803120006F089E318D
:10040000BD26803120006E089E31BD26803120003F
:1004100061089E31BD268031FE309E31BD2680317F
:100420006F2D3330210028020318172A182A4F2A6B
:100430000430290203181D2A1E2A4F2A28082000EA
:10044000C2004208EF007C30A000F030A1006F082D
:10045000C2004208A2009031712080312100290899
:100460002000C2004208EE007D30A000F030A10064
:100470006E08C2004208A20090317120803195318F
:10048000E8258031FD309E31BD268031C7309E3158
:10049000BD26803100309E31BD2680315B2AFD3083
:1004A0009E31BD268031C7309E31BD268031FF3060
:1004B0009E31BD268031FE309E31BD2680316F2DAC
:1004C000210028080319652A662A6C2A2803031DBF
:1004D0006A2A6B2A922A6C2A2808031D702A722A1B
:1004E0000130732A00302000C2004208E1007E3053
:1004F000A000F030A1006108C2004208A2009031C3
:10050000712080319531E8258031FD309E31BD2646
:100510008031C8309E31BD26803100309E31BD26ED
:1005200080319E2AFD309E31BD268031C8309E31FB
:10053000BD268031FF309E31BD268031FE309E3198
:10054000BD2680316F2DFD309E31BD268031C930F2
:100550009E31BD26803164302000A000F030A10023
:100560009F31192780319E31BD26803165302000B2
:10057000A000F030A1009F31192780319E31BD26A7
:10058000803166302000A000F030A1009F31192793
:1005900080319E31BD26803167302000A000F030D0
:1005A000A1009F31192780319E31BD2680316830EE
:1005B0002000A000F030A1009F31192780319E312A
:1005C000BD26803169302000A000F030A1009F31AD
:1005D000192780319E31BD2680316A302000A0006D
:1005E000F030A1009F31192780319E31BD26803126
:1005F0006B302000A000F030A1009F31192780311E
:100600009E31BD2680316C302000A000F030A1006A
:100610009F31192780319E31BD2680316D302000F9
:10062000A000F030A1009F31192780319E31BD26F6
:1006300080316E302000A000F030A1009F311927DA
:1006400080319E31BD2680316F302000A000F03017
:10065000A1009F31192780319E31BD268031703035
:100660002000A000F030A1009F31192780319E3179
:10067000BD26803171302000A000F030A1009F31F4
:10068000192780319E31BD26803172302000A000B4
:10069000F030A1009F31192780319E31BD26803175
:1006A00073302000A000F030A1009F311927803165
:1006B0009E31BD26803174302000A000F030A100B2
:1006C0009F31192780319E31BD2680317530200041
:1006D000A000F030A1009F31192780319E31BD2646
:1006E000803176302000A000F030A1009F31192722
:1006F00080319E31BD26803177302000A000F0305F
:10070000A1009F31192780319E31BD268031FE30F6
:100710009E31BD2680316F2DFD309E31BD2680314A
:10072000CA309E31BD26803164302000A000F030F8
:10073000A100A20190317120803165302000A0001D
:10074000F030A100A201903171208031663020008C
:10075000A000F030A100A2019031712080316730FB
:100760002000A000F030A1003230C2004208A200F8
:1007700090317120803168302000A000F030A1005D
:10078000A2019031712080312100B8016930200030
:10079000A000F030A100A2019031712080316A30B8
:1007A0002000A000F030A100A20190317120803122
:1007B0006B302000A000F030A100A2019031712028
:1007C00080316C302000A000F030A100A2019031F7
:1007D000712080316D302000A000F030A100A20116
:1007E00090317120803132302000C2004208210057
:1007F000D2006E302000A000F030A100A2019031A4
:10080000712080316F302000A000F030A100A201E3
:1008100090317120803170302000A000F030A100B4
:10082000A20190317120803171302000A000F030A1
:10083000A100A20190317120803172302000A0000F
:10084000F030A1000330C2004208A20090317120B4
:1008500080312100B70173302000A000F030A100EA
:10086000A20190317120803174302000A000F0305E
:10087000A100A20190317120803175302000A000CC
:10088000F030A100A201903171208031763020003B
:10089000A000F030A100A2019031712080317730AA
:1008A0002000A000F030A100A20190317120803121
:1008B00003302000C20042082100D1009531E82514
:1008C000803100309E31BD268031FE309E31BD2604
:1008D00080316F2DFD309E31BD268031CB309E3171
:1008E000BD26803114309E31BD26803120006C0839
:1008F0009E31BD26803120006B089E31BD2680319F
:1009000020006A089E31BD268031FE309E31BD2612
:1009100080316F2DFD309E31BD268031CC309E312F
:10092000BD2680310B30210028020318982C992C09
:10093000D92CD22CD22C20006B086A060319A12CCA
:10094000A22CD92C9231BC22803120003730860075
:100950000030870046308400003085000530C2003A
:1009600016001A00C20BB02C46089E31BD268031FD
:10097000200047089E31BD268031200048089E3166
:10098000BD268031200049089E31BD2680312000DF
:100990004A089E31BD26803101302100A802D22CA8
:1009A000D92CD22C2808031DD62CD72C9B2CD92C23
:1009B000D92CFE309E31BD2680316F2DFD309E3109
:1009C000BD268031CD309E31BD2680310B302100D7
:1009D00028020318EC2CED2C522D14302902031898
:1009E000F22CF32C522D20006C0821002902031850
:1009F000FA2CFB2C522D143020006C020318012D10
:100A0000022D492D21002903FF3A20006C07C20066
:100A100042082100A800492D492D29089431DB24E2
:100A2000803120002230860000308700463084006C
:100A3000003085000530C20016001A00C20B1C2DC4
:100A400046089E31BD268031200047089E31BD26D4
:100A50008031200048089E31BD26803120004908A1
:100A60009E31BD26803120004A089E31BD2680314E
:100A700001302000C20042082100A90714302902D9
:100A8000031C432D442D462DA901462D0130A802FB
:100A9000492D21002808031D4E2D4F2D0D2D522DBF
:100AA000522D522DFE309E31BD2680316F2D6F2D7F
:100AB0006F2D20004508C200C3014308003A031906
:100AC000622D6F2D4208403E031C6F2D84000E30B6
:100AD000040203186F2D98310435003E820008008F
:100AE0009F31E42785318B170B175D302000A00064
:100AF0001530A1008831002085314C302000A00045
:100B00000830A1009E31522685319F310927853159
:100B10008D310A2585318C2D21003308031D912D3F
:100B2000922D9B2DB301B30A8731F42785319E3175
:100B3000042685318C2D21003D080319A02DA12DFF
:100B4000D72E3A080319A52DA62DB92D3908031D56
:100B5000AA2DAB2DB22D9E31182685319E31F92656
:100B60008531B22D01302000D90059082100B90784
:100B7000B92D7C080319BD2DBE2DD42E7C08200074
:100B8000D9005908A0006208903196208531003ABA
:100B9000031DCB2DCC2DD42E00309F3196278531CF
:100BA000200021082100AE00200020082100AD0017
:100BB0002E082000DA0021002D082000D9000E3078
:100BC000DA36D90C890BE02D5908DB005B08DE0012
:100BD00000009631772685312000D9005908DF00C2
:100BE000000020005E086E020318F72DF82D012E7C
:100BF00061080319FC2DFD2D012E2100BA01BA0A4E
:100C0000012E20005F086F020318072E082E112EF8
:100C1000610803190C2E0D2E112E2100BA01BA0AFB
:100C2000112E20005E08210035060319182E192EFA
:100C3000432E20005F08210036060319202E212EA6
:100C4000432E20005F08D90059082100B60020007B
:100C50005E08D90059082100B50020006408D900B9
:100C60005908B7006208DA005A08B8005F08DB00CC
:100C70005B08B9005E08DC005C08BA0066089431C5
:100C8000632485318D2E20005E082100350603196E
:100C90004A2E4B2E672E20005E08D90059082100ED
:100CA000B50020006408D9005908B7006208DA00CE
:100CB0005A08B8005F08DB005B08B9005E08DC007A
:100CC0005C08BA0066089431632485318D2E2000BB
:100CD0005F082100360603196E2E6F2E8D2E200020
:100CE0005F08D90059082100B60020006408D90027
:100CF0005908B7006208DA005A08B8005F08DB003C
:100D00005B08B9005E08DC005C08BA006608943134
:100D1000632485318D2E8D2E8D2E20005E082100BE
:100D200037020318942E952E9F2E20005E08D900BE
:100D300059082100B7009031E62085319F2E21000F
:100D4000510820005E020318A62EA72EB02E5E08C2
:100D5000D90059082100D100913129218531B02EC7
:100D600020005F08210038020318B72EB82EC22ECB
:100D700020005F08D90059082100B80091316C218A
:100D80008531C22E2100520820005F020318C92EAF
:100D9000CA2ED42E5F08D90059082100D20088310C
:100DA00009208531D42ED42E2100BD01D72E3C0838
:100DB0000319DB2EDC2EEE2E79302000A000F0305F
:100DC000A1006408D9005908A20090317120853132
:100DD0009531E82585312100BC01EE2E3B08031931
:100DE000F22EF32E052F78302000A000F030A10065
:100DF0006608D9005908A2009031712085319531DB
:100E0000E82585312100BB01052F39087D02031833
:100E10000A2F0B2F622F9E311C2685319E31DA2638
:100E20008531622F622F2000DD018731C82785318F
:100E30002000D9005908DD00210042080319212FA4
:100E4000222F2B2FC201BF0120005D08D9005908B5
:100E50002100C000492FFD3020005D060319312F0D
:100E6000322F492FFE305D060319372F382F492FB7
:100E70005D08D90021003F08A83E860087012000B8
:100E8000590881000130D90059082100BF07492FB6
:100E9000492FFD3020005D06031D4F2F502F542F8A
:100EA0002100C201C20A542FFE3020005D06031D3E
:100EB0005A2F5B2F622F210040088031922085310C
:100EC000622F622F9E3114268531003A031D692F4F
:100ED0006A2F132F6B2F9031BD208531003A0319F3
:100EE000722F732F9C2F21003408031D782F792F28
:100EF000A52FB401B40AFD309E31BD268531CE3018
:100F00009E31BD26853114309E31BD2685312000AD
:100F10006C089E31BD26853120006B089E31BD26B0
:100F2000853120006A089E31BD268531FE309E3114
:100F3000BD268531A52FA52F210034080319A12F27
:100F4000A22FA52FB401A52FA52F8731F427853116
:100F500020008E1AAC2FAD2FBA2F0E0E890C01393E
:100F6000210050060319B52FB62FBA2F89310E2153
:100F70008531BA2F003020008E1A01302100D000B8
:100F80008A31ED2285318C2D8C2D8C2D80315C2881
:100F90002000A101CC2FCC2F210043080319D12F11
:100FA000D22FCC2FD32F4408A03E86008701010802
:100FB0002000A0002008A1000130A000200821008E
:100FC000C40708304402031CE62FE72FE92FC401B1
:100FD000E92F2E00991201302100C3022E0099162C
:100FE00020002108F32F080020001612F72F961278
:100FF000F92F1613FB2F9613FD2F0800033402342C
:10100000200021082100C900200020082100C8007C
:10101000080064302000A000F030A1006608B6008F
:101020003608A20090317120883165302000A00080
:10103000F030A1006408B6003608A200903171209B
:10104000883166302000A000F030A1006208B600B0
:101050003608A20090317120883167302000A0004E
:10106000F030A100210052082000B6003608A2008E
:1010700090317120883168302000A000F030A1004C
:101080005E08B6003608A200903171208831953193
:10109000E82588314B280800FA2820000D1A51282D
:1010A00052280D2921003A08031957285828722878
:1010B0003A0803195C285E2801305F280030F000F0
:1010C0007008BA0039087D02031C672868286F2859
:1010D0009E31102688319E31CB2688316F28210021
:1010E000B9010D29BE01BE0A0D290D290D292000C7
:1010F0000D1A7B287C280D290230F0007008210091
:10110000BE000D290D2920000D1A872888280D29D9
:101110000330F00070082100BE000D290D292000C9
:101120000D1A932894280D290430F000700821002E
:10113000BE000D290D2920000D1A9F28A0280D2979
:101140002100BE010D290D2920000D1AA828A9286B
:101150000D290630F00070082100BE000D290D2970
:1011600020000D1AB428B5280D290730F0007008AA
:101170002100BE000D290D2920000D1AC028C1280C
:101180000D290830F00070082100BE000D290D293E
:1011900020000D1ACC28CD280D292100BE010D29D3
:1011A0000D2920000D1AD528D6280D292100BE01B1
:1011B0000D290D2920000D1ADE28DF280D290B30FE
:1011C000F00070082100BE000D290D2920000D1A25
:1011D000EA28EB280D292100BE010D290D29200048
:1011E0000D1AF328F4280D292100BE010D290D291F
:1011F0000D290D2921003E08F000F1017108003A87
:10120000031903290D29700884000D300402031806
:101210000D2998310435363E82000800D52A053064
:101220002000B60036082100BE00EC2A093020005C
:10123000B60036082100BE00EC2A0A302000B600B5
:1012400036082100BE00EC2A0C302000B60036081B
:101250002100BE00EC2A01302000B6003608E90764
:101260000330A0000030A1006908B600B7013608BD
:10127000A2003708A30092315E22893120002008A5
:10128000B8003808E90002306906031D48294929D9
:101290004F2965080339B6003608E5004F290A30A2
:1012A000B6003608A00069089F31AF2789312000B9
:1012B0006507B7003708E6007830A000F030A100DD
:1012C0006608B6003608A200903171208931953148
:1012D000E8258931EC2A01302000B6003608E50700
:1012E000023069060319752976298A290A30A00077
:1012F0000030A1006508B600B7013608A200370823
:10130000A30092315E22893120002008B8003808FD
:10131000E5008A2902306906031D8F299029962944
:1013200065080339B6003608E50096290A30B6008C
:101330003608A00069089F31AF2789312000650772
:10134000B7003708E6007830A000F030A10066084A
:10135000B6003608A2009031712089319531E82518
:101360008931EC2A01302000B6003608E807063043
:10137000A0000030A1006808B600B7013608A2003E
:101380003708A30092315E22893120002008B8007E
:101390003808E8000A30B6003608A00068089F3117
:1013A000AF27893120006307B7003708E4007930A0
:1013B000A000F030A1006408B6003608A200903109
:1013C000712089319531E8258931EC2A01302000DE
:1013D000B6003608E3070A30A0000030A100630819
:1013E000B600B7013608A2003708A30092315E228A
:1013F000893120002008B8003808E3000A30B60020
:101400003608A00068089F31AF27893120006307A4
:10141000B7003708E4007930A000F030A10064087C
:10142000B6003608A2009031712089319531E82547
:101430008931EC2A21003A08031D1F2A202AEC2AB0
:10144000200061080319252A272A0130282A0030A4
:10145000B6003608E1007E30A000F030A10061083F
:10146000B6003608A2009031712089319531E82507
:101470008931EC2AEC2A01302000B6003608E70753
:101480000630A0000030A1006708B600B70136089A
:10149000A2003708A30092315E2289312000200883
:1014A000B8003808E70005306706031D582A592A96
:1014B0005B2AE0015B2A0A30B6003608A000670804
:1014C0009F31AF27893120006007B7003708EF0050
:1014D0007C30A000F030A1006F08B6003608A200F2
:1014E0009031712089319531E8258931EC2A01301C
:1014F0002000B6003608E007053067060319812A88
:10150000822A962A0A30A0000030A1006008B600A6
:10151000B7013608A2003708A30092315E22893154
:1015200020002008B8003808E000962A0530670639
:10153000031D9B2A9C2A9E2AE0019E2A0A30B6009F
:101540003608A00067089F31AF2789312000600767
:10155000B7003708EF007C30A000F030A1006F0822
:10156000B6003608A2009031712089319531E82506
:101570008931EC2A01302000B6003608EE076E08EB
:101580000339B6003608EE007D30A000F030A1002F
:101590006E08B6003608A20090317120893195316D
:1015A000E8258931EC2AEC2AEC2A21003E082000AB
:1015B000B600B7013708003A0319DF2AEC2A3608CB
:1015C000FF3E031CEC2A84000C3004020318EC2AB2
:1015D00098310435503E820008002000A201A20A82
:1015E000F52C621CF42AF52AF82A9617FB2AFB2A06
:1015F0009613FB2AFB2A21003A080319002B012B22
:101600000B2B03303902031C062B072B0B2B20005E
:1016100016170F2B0F2B200016130F2B0F2B223515
:101620005E050319142B152B182B96161B2B1B2B41
:1016300096121B2B1B2B5E0822050319202B212B36
:10164000242B1616092D092D1612092D092D092DE9
:1016500062182B2B2C2B2F2B9617092D092D961347
:10166000092D092D092D6218362B372B3A2B161709
:10167000092D092D1613092D092D092D6218412B4D
:10168000422B452B9616092D092D9612092D092D51
:10169000092D62184C2B4D2B502B1616092D092D98
:1016A0001612092D092D092D2208A0000230A0359F
:1016B000FF3E031D572B203569050319602B612B55
:1016C000642B9617672B672B9613672B672B2208C3
:1016D000A0000130A035FF3E031D6A2B20356905AF
:1016E0000319732B742B772B16177A2B7A2B16135F
:1016F0007A2B7A2B2235690503197F2B802B832BBC
:101700009616862B862B9612862B862B6908220529
:1017100003198B2B8C2B8F2B1616092D092D1612C6
:10172000092D092D092D2208A0000230A035FF3E09
:10173000031D962B2035650503199F2BA02BA32B8A
:101740009617A62BA62B9613A62BA62B2208A00035
:101750000130A035FF3E031DA92B20356505031977
:10176000B22BB32BB62B1617B92BB92B1613B92BDB
:10177000B92B223565050319BE2BBF2BC22B96163C
:10178000C52BC52B9612C52BC52B65082205031941
:10179000CA2BCB2BCE2B1616092D092D1612092D6F
:1017A000092D092D2208A0000230A035FF3E031D9F
:1017B000D52B203568050319DE2BDF2BE22B96177E
:1017C000E52BE52B9613E52BE52B2208A000013035
:1017D000A035FF3E031DE82B203568050319F12BCA
:1017E000F22BF52B1617F82BF82B1613F82BF82BDA
:1017F000223568050319FD2BFE2B012C9616042CAF
:10180000042C9612042C042C680822050319092CB8
:101810000A2C0D2C1616092D092D1612092D092D2D
:10182000092D2208A0000230A035FF3E031D142C14
:101830002035630503191D2C1E2C212C9617242CF2
:10184000242C9613242C242C2208A0000130A0352F
:10185000FF3E031D272C203563050319302C312C46
:10186000342C1617372C372C1613372C372C2235DF
:10187000630503193C2C3D2C402C9616432C432C1D
:101880009612432C432C630822050319482C492C3B
:101890004C2C1616092D092D1612092D092D092D6E
:1018A00061080319542C552C582C1616092D092D96
:1018B0001612092D092D092D2208A0000230A0358D
:1018C000FF3E031D5F2C203567050319682C692C2A
:1018D0006C2C96176F2C6F2C96136F2C6F2C220884
:1018E000A0000130A035FF3E031D722C2035670596
:1018F00003197B2C7C2C7F2C1617822C822C161320
:10190000822C822C223567050319872C882C8B2C7E
:1019100096168E2C8E2C96128E2C8E2C67082205F5
:101920000319932C942C972C1616092D092D161299
:10193000092D092D092D2208A0000230A035FF3EF7
:10194000031D9E2C203560050319A72CA82CAB2C59
:101950009617AE2CAE2C9613AE2CAE2C2208A000FF
:101960000130A035FF3E031DB12C20356005031961
:10197000BA2CBB2CBE2C1617C12CC12C1613C12C93
:10198000C12C223560050319C62CC72CCA2C96160B
:10199000CD2CCD2C9612CD2CCD2C60082205031910
:1019A000D22CD32CD62C1616092D092D1612092D42
:1019B000092D092D22356E050319DF2CE02CE32CAF
:1019C0009616E62CE62C9612E62CE62C6E082205DE
:1019D0000319EB2CEC2CEF2C1616092D092D1612E1
:1019E000092D092D092D092D092D21003E08200062
:1019F000A000A1012108003A0319FF2C092D20089D
:101A000084000D3004020318092D983104351C3E62
:101A1000820008002000C801C901C401C501C60137
:101A2000C701CA01CB01CC01CD01CE01CF01D0014C
:101A3000D101D201D301D401D501D601D701D801FA
:101A40006730A000F030A1009F3119278D312000B0
:101A5000B6003608D5006C30A000F030A1009F31F0
:101A600019278D312000B6003608D6007230A0004C
:101A7000F030A1009F3119278D312000B6003608C3
:101A8000D7007730A000F030A1009F3119278D31A9
:101A90002000B6003608D8007830A000F030A10051
:101AA0009F3119278D312000B6003608D3007930D8
:101AB000A000F030A1009F3119278D312000B60021
:101AC0003608D4007A30A000F030A1009F311927E9
:101AD0008D312000B6003608CA007B30A000F030FF
:101AE000A1009F3119278D312000B6003608CB00A8
:101AF0007C30A000F030A1009F3119278D312000EB
:101B0000B6003608CC007D30A000F030A1009F3137
:101B100019278D312000B6003608CD007E30A00098
:101B2000F030A1009F3119278D312000B600360812
:101B3000CE007F30A000F030A1009F3119278D31F9
:101B40002000B6003608CF008030A000F030A100A1
:101B50009F3119278D312000B6003608D000813022
:101B6000A000F030A1009F3119278D312000B60070
:101B70003608D1008230A000F030A1009F31192733
:101B80008D312000B6003608D2005808B600B701E3
:101B90005708B800B90155085607BA00BB01BB0D7C
:101BA00038083A07BC0039083B3DBD0036083C0701
:101BB000BE0037083D3DBF003E08C8073F08C93D8D
:101BC00053085407B600B701B70D3608C8073708E1
:101BD000C93D4E08B600B7014D08B800B9014C0820
:101BE000BA00BB014A084B07BC00BD01BD0D3A0855
:101BF0003C07BE003B083D3DBF0038083E07C00023
:101C000039083F3DC10036084007C2003708413D52
:101C1000C3004208C8074308C93D5208B600B701CF
:101C20005108B800B9014F085007BA00BB01BB0DFD
:101C300038083A07BC0039083B3DBD0036083C0770
:101C4000BE0037083D3DBF003E08C8073F08C93DFC
:101C50008330A000F030A1009F3119278D31200082
:101C6000B6003608C7008430A000F030A1009F31D4
:101C700019278D312000B6003608C6004608B60088
:101C8000B7014708B800B9013808B900B8013608EB
:101C90003807C4003708393DC50045084906031D0B
:101CA000532E44084806031D562E572E1A2F55084A
:101CB000B60036082100D20020005608B6003608CB
:101CC0002100B80020005708B60036082100D100D6
:101CD00020005808B60036082100B700200053083D
:101CE000B6003608E6000A30A0000030A100660801
:101CF000B600B7013608A2003708A30093318C2341
:101D00008D3120002008B8003808E9000A30A00012
:101D10000030A1006608B600B7013608A2003708F7
:101D2000A30092315E228D3120002008B8003808CF
:101D3000E5005408B6003608E4000A30A000003080
:101D4000A1006408B600B7013608A2003708A30056
:101D500093318C238D3120002008B8003808E8002A
:101D60000A30A0000030A1006408B600B7013608B0
:101D7000A2003708A30092315E228D312000200896
:101D8000B8003808E3004A08B6003608FC004B08E3
:101D9000B6003608FD004C08B6003608EF000A30E1
:101DA000A0000030A1006F08B600B7013608A200FD
:101DB0003708A30093318C238D3120002008B80010
:101DC0003808E7000A30A0000030A1006F08B60014
:101DD000B7013608A2003708A30092315E228D3188
:101DE00020002008B8003808E0004D08B60036088A
:101DF000EE004E08031DFD2EFF2E0130002F003097
:101E0000B6003608E1004F08B6003608EA00500870
:101E1000B6003608EB005108B6003608EC00520850
:101E2000031D132F152F0130162F0030B600360872
:101E3000ED00FF2F6730A000F030A1002100520814
:101E40002000B6003608A200903171208D316C3030
:101E50002000A000F030A100210038082000B600CA
:101E60003608A200903171208D3172302000A00020
:101E7000F030A100210051082000B6003608A20071
:101E8000903171208D3177302000A000F030A1001A
:101E9000210037082000B6003608A20090317120DA
:101EA0008D3178302000A000F030A1006608B60027
:101EB0003608A200903171208D3179302000A000C9
:101EC000F030A1006408B6003608A20090317120FD
:101ED0008D317A302000A000F030A1007C08B600DF
:101EE0003608A200903171208D317B302000A00097
:101EF000F030A1007D08B6003608A20090317120B4
:101F00008D317C302000A000F030A1006F08B600B9
:101F10003608A200903171208D310A302000A000D7
:101F20000030A1006F08B600B7013608A2003708DC
:101F3000A30093318C238D3120002008B80038088D
:101F4000E7000A30A0000030A1006F08B600B7011A
:101F50003608A2003708A30092315E228D3120009E
:101F60002008B8003808E0007D30A000F030A10063
:101F70006E08B6003608A200903171208D317E3097
:101F80002000A000F030A1006108B6003608A200D1
:101F9000903171208D317F302000A000F030A10001
:101FA0006A08B6003608A200903171208D31803069
:101FB0002000A000F030A1006B08B6003608A20097
:101FC000903171208D3181302000A000F030A100CF
:101FD0006C08B6003608A200903171208D31823035
:101FE0002000A000F030A1006D08B6003608A20065
:101FF000903171208D319531E8258D31FF2F08000A
:10200000803027008E0007308D0040308C00240087
:102010001F08F33904389F00080024008F01900145
:102020000430910086308D00E8308C000D082100CE
:10203000CB0024000C082100CA002E0010101A1436
:1020400003302000A0000030A10088310020903132
:10205000053024008E00080022009D1C3028312805
:1020600034281D121D1634281908F00021004508D7
:10207000A03E86008701700881000130F0007008E2
:10208000C50708304502031C462847284928C501D2
:1020900049280130F0007008C30708000F30230002
:1020A00010052000A00008302006031958285928E0
:1020B00064280F30230010052000A0000B302006FC
:1020C000031D632864286828230091156828682860
:1020D00023000F1C6C286D2868286E280C087028B7
:1020E000080000308B1B01302000A30021083000C5
:1020F0009B002000200830009A00200022083000B9
:102100009C001E171E158B1355309F00AA309F0090
:102110009E148A289E188D288E288A281E11200039
:10212000230C031C8B1303188B1708002000A3003B
:102130000830A1002108A400A5019E282308A100C1
:102140000730A136890BA12825352104A2002208D9
:10215000A5000310A30D20082502031CB028B128F8
:10216000B3282008A5020130A402031DB828B9280D
:102170009E28BA282508BC2808002000A1016B0869
:10218000A0002008A200D5280530A0002008A20742
:1021900060302202031CCD28CE28D028A201D028EE
:1021A0000130A0002008A107D5286A082206031DD7
:1021B000DA28DB28C428DC280B3021020318E128A8
:1021C000E3280130E4280030E528080073302000BF
:1021D000A000F030A1006608B6003608A2009031D9
:1021E0007120903174302000A000F030A10064080C
:1021F000B6003608A2009031712090317530200071
:10220000A000F030A1006208B6003608A2009031AC
:102210007120903176302000A000F030A1005F08DE
:10222000B6003608A200903171209031773020003E
:10223000A000F030A100210037082000B6003608C9
:10224000A2009031712090319531E82590312829F4
:1022500008006E302000A000F030A1006608B60033
:102260003608A2009031712091316F302000A0001B
:10227000F030A1006408B6003608A2009031712049
:10228000913170302000A000F030A1006208B6004B
:102290003608A20090317120913171302000A000E9
:1022A000F030A1005F08B6003608A200903171201E
:1022B000913172302000A000F030A10021005108BF
:1022C0002000B6003608A20090317120913195317E
:1022D000E82591316B29080069302000A000F0301A
:1022E000A1006608B6003608A20090317120913135
:1022F0006A302000A000F030A1006408B600360863
:10230000A2009031712091316B302000A000F0309C
:10231000A1006208B6003608A20090317120913108
:102320006C302000A000F030A1002100380820000F
:10233000B6003608A2009031712091316D30200036
:10234000A000F030A1005E08B6003608A20090316F
:10235000712091319531E8259131AE290800200096
:102360009A019901960197019801073095000F3065
:102370009100FF309200BF309300FF309400FF3097
:102380003E00D9004730CE00EF30C3000730E400F4
:102390000F30B800DA01E501C4014030B90018304F
:1023A000CF00E601BA01C501D001DB01FF30BB005F
:1023B000FF30C600FF30D100FF30DC000730E700FF
:1023C0004A124916481202302000A0000030A10035
:1023D0009E31642691312E0016160C303D0090007F
:1023E0001330C50014303E00A3001530A400173090
:1023F0003D00CC0010303E00A60014303D00C60069
:102400000800F601F31F052A062A0E2AF209F3092D
:10241000F20A0319F30AF601F60A0E2AF11F112A2D
:10242000122A182AF009F109F00A0319F10A182AE8
:102430007008710403191D2A1E2A4D2AF501F50A98
:102440002B2A0130F035F10D890B222A0130F400DE
:102450007408F5072B2AF11F2E2A2F2A212A312A48
:10246000312A71087302031D372A70087202031C97
:102470003A2A3B2A402A7008F2027108F33B402AAC
:102480000130F136F00C890B412A0130F502031DB1
:102490004A2A4B2A312A4D2A4D2A76080319512AF5
:1024A000522A582AF209F309F20A0319F30A582AA0
:1024B0007308F1007208F0005D2A08002000A601F0
:1024C000A31F632A642A6C2AA209A309A20A03197A
:1024D000A30AA601A60A6C2AA11F6F2A702A762ACF
:1024E000A009A109A00A0319A10A762A200821043B
:1024F00003197B2A7C2AAB2AA501A50A892A013067
:10250000A035A10D890B802A0130A4002408A5075D
:10251000892AA11F8C2A8D2A7F2A8F2A8F2A210897
:102520002302031D952A20082202031C982A992AB7
:102530009E2A2008A2022108A33B9E2A0130A13630
:10254000A00C890B9F2A0130A502031DA82AA92AE5
:102550008F2AAB2AAB2A26080319AF2AB02AB62A3B
:10256000A209A309A20A0319A30AB62A2308A100F3
:102570002208A000BB2A080020006B08003EA00033
:10258000F0300318F130A1009F311927923120005B
:10259000BC003C08BD006B08013EA000F0300318F1
:1025A000F130A1009F31192792312000BC003C0876
:1025B000BE006B08023EA000F0300318F130A1000D
:1025C0009F31192792312000BC003C08BF006B08E6
:1025D000033EA000F0300318F130A1009F3119270D
:1025E00092312000BC003C08C0006B08043EA000F3
:1025F000F0300318F130A1009F31192792312000EB
:10260000BC003C08C1000530BC003C08EB07603052
:102610006B02031C0C2B0D2B0F2BEB010F2B9F318F
:102620005C2792313D3086000030870037308400CF
:102630000030850005302000BC0016001A00BC0BDD
:102640001D2B222B0800F601F11F272B282B302BE6
:10265000F009F109F00A0319F10AF601F60A302B24
:10266000F31F332B342B3E2BF209F309F20A031923
:10267000F30A0130F4007408F6063E2BF701F80166
:10268000700871040319452B462B7B2BF501F50AC5
:10269000532B0130F035F10D890B4A2B0130F4003A
:1026A0007408F507532BF11F562B572B492B592B29
:1026B000592B0130F735F80D890B5A2B710873022D
:1026C000031D642B70087202031C672B682B6E2B92
:1026D0007008F2027108F33B77146E2B0130F1366B
:1026E000F00C890B6F2B0130F502031D782B792B31
:1026F000592B7B2B7B2B760803197F2B802B862B6A
:10270000F709F809F70A0319F80A862B7808F10087
:102710007708F0008B2B08002000A601A11F912B49
:10272000922B9A2BA009A109A00A0319A10AA601BC
:10273000A60A9A2BA31F9D2B9E2BA82BA209A309A7
:10274000A20A0319A30A0130A4002408A606A82B94
:10275000A701A801200821040319AF2BB02BE52BFA
:10276000A501A50ABD2B0130A035A10D890BB42B05
:102770000130A4002408A507BD2BA11FC02BC12B2D
:10278000B32BC32BC32B0130A735A80D890BC42B4A
:1027900021082302031DCE2B20082202031CD12B6B
:1027A000D22BD82B2008A2022108A33B2714D82B18
:1027B0000130A136A00C890BD92B0130A502031DD5
:1027C000E22BE32BC32BE52BE52B26080319E92B82
:1027D000EA2BF02BA709A809A70A0319A80AF02BCE
:1027E0002808A1002708A000F52B08002000A10060
:1027F000210823008C00901FFE2BFF2B022C622C43
:10280000622C622C0F3010052000A000083020063A
:1028100003190B2C0C2C2A2C0F3023001005200040
:10282000A0000B3020060319162C172C2A2C23008D
:1028300010161A2C2E000F1C1E2C1F2C1A2C2300D5
:102840000F19232C242C622C0F08622C622C622C72
:10285000622C622C0F30230010052000A0000830ED
:1028600020060319342C352C422C0F302300100580
:102870002000A0000B302006031D3F2C402C622CB2
:10288000422C422C23000F18462C472C422C4A2C59
:102890004A2C4A2C23000F0C890C01392000A0007F
:1028A000230011081F3920002004031D582C592C27
:1028B0004A2C23001108622C622C622C622C622CA0
:1028C000622C622C08002000BC006D080319692CE2
:1028D0006A2C6F2CED019F31292794316F2C200039
:1028E0006A08003EA000F0300318F130A1003C0857
:1028F000BB003B08A20090317120943120006A088F
:10290000013EA000F0300318F130A1003708BB00F1
:102910003B08A20090317120943120006A08023EE9
:10292000A000F0300318F130A1003808BB003B08CC
:10293000A20090317120943120006A08033EA0006B
:10294000F0300318F130A1003908BB003B08A200A9
:1029500090317120943120006A08043EA000F030CC
:102960000318F130A1003A08BB003B08A2009031E7
:102970007120943105302000BB003B08EA07143079
:102980006C020318C42CC52CCA2C0130BB003B08B8
:10299000EC07CA2C9F313A279431603020006A023C
:1029A000031CD32CD42CD62CEA01D62C9F314B27D8
:1029B0009431DA2C08002000A80014306C020318AF
:1029C000E22CE32CE52CAE01E92C6A08A7002708CD
:1029D000AE0060302E02031CEE2CEF2C012DAE0158
:1029E000012D012D0530A7002708AE0760302E020B
:1029F000031CFB2CFC2CFE2CAE01FE2C0130A8028B
:102A0000012D2808031D052D062DF22C072D2E085B
:102A1000003EA000F0300318F130A1009F311927CB
:102A200094312000A7002708A9002E08013EA0002D
:102A3000F0300318F130A1009F31192794312000A4
:102A4000A7002708AA002E08023EA000F0300318B5
:102A5000F130A1009F31192794312000A7002708E9
:102A6000AB002E08033EA000F0300318F130A100A7
:102A70009F31192794312000A7002708AC002E08A9
:102A8000043EA000F0300318F130A1009F31192757
:102A900094312000A7002708AD00293086000030BF
:102AA000870022308400003085000530A700160022
:102AB0001A00A70B572D5C2D08002100BD01BD0A8F
:102AC0000130F90079082000E2073C306202031C63
:102AD0006A2D6B2D9A2DE2010130F9007908E40787
:102AE0000A30F0000030F1006408F900FA017908BA
:102AF000F2007A08F3009331232395317008FB002C
:102B00007B082000E8000A30F0000030F100640883
:102B1000F900FA017908F2007A08F30092310122F3
:102B200095317008FB007B082000E3002100BC0108
:102B3000BC0A9A2D3C3020006402031CA02DA12D5C
:102B4000D42DE401E801E3010130F9007908E6073A
:102B50000A30F0000030F1006608F900FA01790847
:102B6000F2007A08F3009331232395317008FB00BB
:102B70007B082000E9000A30F0000030F100660810
:102B8000F900FA017908F2007A08F3009231012283
:102B900095317008FB007B082000E5002100BC0196
:102BA000BC0ABB01BB0AD42D183020006602031CEE
:102BB000DA2DDB2DE22DE601E901E5012100BB0163
:102BC000BB0AE22D2E0010109E31402695310800E0
:102BD0002000B201B301B401B50121003708200083
:102BE000A400A501210051082000A600A701210092
:102BF000520838072000A800A901A90D26082807B7
:102C0000AA002708293DAB0024082A07AC002508A4
:102C10002B3DAD002C08B4072D08B53D66086407B0
:102C2000A400A501A50D2408B4072508B53D610839
:102C3000A400A5016E08A600A7016F08A800A901BD
:102C40007C087D07AA00AB01AB0D28082A07AC0061
:102C500029082B3DAD0026082C07AE0027082D3D86
:102C6000AF0024082E07B00025082F3DB100300822
:102C7000B4073108B53D6D08A400A5016C08A60095
:102C8000A7016A086B07A800A901A90D2608280753
:102C9000AA002708293DAB0024082A07AC00250814
:102CA0002B3DAD002C08B4072D08B53D3508A40018
:102CB0002408B2003408A4002408B3008330A00024
:102CC000F030A1003208A4002408A2009031712045
:102CD000953184302000A000F030A1003308A4001A
:102CE0002408A200903171209531762E0800792EAB
:102CF000792E23000F0C890C01392000A20023003B
:102D000011081F3920002204031D872E882E792EDA
:102D1000230011148B2E11188E2E8F2E8B2E922E97
:102D2000922E922E23000F0C890C01392000A20054
:102D3000230011081F3920002204031DA02EA12EFC
:102D4000922EA22E9A309331F6239631A82EA82ED9
:102D500023000F0C890C01392000A2002300110868
:102D60001F3920002204031DB62EB72EA82EB82E20
:102D700001309331F6239631BE2EBE2E23000F0C68
:102D8000890C01392000A200230011081F392000FE
:102D90002204031DCC2ECD2EBE2E23009114D02E46
:102DA0009118D32ED42ED02ED72ED72ED72E230047
:102DB0000F0C890C01392000A200230011081F39D3
:102DC00020002204031DE52EE62ED72EE72E9B3091
:102DD0009331F6239631ED2EED2E23000F0C890C46
:102DE00001392000A200230011081F39200022040D
:102DF000031DFB2EFC2EED2EFD2E90314E20963124
:102E00002000A2002208A300062F062F23000F0C8B
:102E1000890C01392000A200230011081F3920006D
:102E20002204031D142F152F062F230091161116AF
:102E3000192F111A1C2F1D2F192F202F202F202F53
:102E400023000F0C890C01392000A2002300110877
:102E50001F3920002204031D2E2F2F2F202F230087
:102E60001115322F1119352F362F322F2000231F25
:102E70003A2F3B2F772E3E2F3E2F3E2F23000F0C55
:102E8000890C01392000A200230011081F392000FD
:102E90002204031D4C2F4D2F3E2F23001114502FC1
:102EA0001118532F542F502F572F572F572F2300C0
:102EB0000F0C890C01392000A200230011081F39D2
:102EC00020002204031D652F662F572F672F9A308D
:102ED0009331F62396316D2F6D2F23000F0C890C43
:102EE00001392000A200230011081F39200022040C
:102EF000031D7B2F7C2F6D2F7D2F00309331F62308
:102F00009631832F832F23000F0C890C0139200069
:102F1000A200230011081F3920002204031D912F55
:102F2000922F832F23009114952F9118982F992F6A
:102F3000952F9C2F9C2F9C2F23000F0C890C01395F
:102F40002000A200230011081F3920002204031DC5
:102F5000AA2FAB2F9C2FAC2F9B309331F6239631A9
:102F6000B22FB22F23000F0C890C01392000A200D0
:102F7000230011081F3920002204031DC02FC12F78
:102F8000B22FC22F90314E2096312000A20022088D
:102F9000A300CB2FCB2F23000F0C890C013920006D
:102FA000A200230011081F3920002204031DD92F7D
:102FB000DA2FCB2F230091161116DE2F111AE12FD5
:102FC000E22FDE2FE52FE52FE52F23000F0C890CD4
:102FD00001392000A200230011081F39200022041B
:102FE000031DF32FF42FE52F23001115F72F1119CF
:102FF000FA2FFB2FF72FFC2F20002308FF2F0800AC
:10300000803195288031B128813159298131702949
:10301000813185298131BD298131F5298231112AFA
:103020008231602A8231A32A83318C2B84316A2C2D
:1030300084318A2C8431DE2C8A31F12A8B31282B81
:103040008B31332B8B313E2B8B31492B8B31542BD6
:103050008B31932B8B31D22B8C31112C8C31502C0A
:103060008C315C2C8C319B2C8C31DA2C88314D28A6
:10307000883177288831832888318F2888319B28A8
:103080008831A4288831B0288831BC288831C828E4
:103090008831D1288831DA288831E6288831EF282C
:1030A00089310F298931162989311D29893124292E
:1030B00089312B2989316B298931B2298931E62956
:1030C0008A311A2A8A313B2A8A31772A8A31BA2AE6
:103C0000080025008E13080024000E14080025006B
:103C10008E17080025008E13080001340334323457
:103C20009E3101269E31080021004308172E08000E
:103C30009E3107269E3108009E310A269E310800DB
:103C40002E000C109E3177269E3108006400800102
:103C50000131890B272E0034FE0012001E00FE0BDE
:103C60002D2E0034003400340034013402341E346C
:103C70002F0096019701980199019A019B01080074
:103C800021004B08F1004A08F0009F316D279E315A
:103C90000800200021082100CD002000200821007C
:103CA000CC000800200021082100C70020002008C7
:103CB0002100C6000800623031008D008F019101A3
:103CC0000230930092010800200021082100CF005B
:103CD000200020082100CE0008003E004A1E712E60
:103CE000722E762E9E31E9269E31762E0800210016
:103CF0004608470403197D2E7E2E842E47088A002D
:103D000046080A009E31842E080021004808490414
:103D100003198B2E8C2E922E49088A0048080A001F
:103D20009E31922E08002E00101021004B08F10049
:103D30004A08F0009F316D279E319E3185269E31C5
:103D400008002E000C100B1000302000A0001E30C8
:103D5000A1009E3152269E312E001614080001301B
:103D6000250090008F019101F9308D008C012E000B
:103D70009010803025008E0008002000A000C02E8A
:103D80002E000F1EC42EC52EC02EC62E20002008C9
:103D900022009A00080055303D008F00AA308F00A5
:103DA0000F103E00960155303D008F00AA308F0065
:103DB0000F14080055303D008F00AA308F000F10FF
:103DC0003E00960155303D008F00AA308F000F1441
:103DD000080021004E084F040319EF2EF02EF62E96
:103DE0004F088A004E080A009E31F62E3E004A1205
:103DF000080055303D008F00AA308F000F100E30A4
:103E00003E00960055303D008F00AA308F000F1401
:103E100008002300901A0D2F0E2F182F8F01283025
:103E20009000910103308D00182F182F182F182F94
:103E300008002000210830009B00200020083000EE
:103E40009A001E171E140000000030001C08282FC6
:103E5000080082302000A000F030A1006D08B600FC
:103E60003608A200903171209F319531E8259F31AD
:103E7000392F080081302000A000F030A1006C082C
:103E8000B6003608A200903171209F319531E825A7
:103E90009F314A2F08007F302000A000F030A100A1
:103EA0006A08B6003608A200903171209F31953122
:103EB000E8259F315B2F080080302000A000F03003
:103EC000A1006B08B6003608A200903171209F3126
:103ED0009531E8259F316C2F080024000E1D712FAD
:103EE000722F792F0E1071088D0070088C000E143F
:103EF0007E2F71088D0070088C007E2F0800220034
:103F00008E018F0190019101920193018D01210099
:103F10009E019B0194019501960197019A019901D7
:103F200098018030930001309D0008002000A3001C
:103F3000230821009E009317131313140000A02FD1
:103F400021001318A42FA52FA02FA62F0D082000A5
:103F5000A10021000C082000A000AE2F08002000C6
:103F6000A300A201B32F231CB62FB72FBC2F20080C
:103F7000A1002108A207BC2F0310A00D0310A30C61
:103F80002308031DC42FC52FB32FC62F2208C82F07
:103F900008002E0099122C302000A0001030A10043
:103FA0009E3149269F310A3022009F0090309D00AB
:103FB00024309E0019309B009C012100C501C401E2
:103FC000C3012E00991608009E3138269F31913189
:103FD000AF219F319E315B269F31903100209F3170
:103FE0009F317F279F319E31AF269F3190310D2029
:103FF0009F319E31A1269F319F31C9279F310800F3
:020000040001F9
:0A000E00EC3FFF379F3FFF3FFF3F2D
:00000001FF
