:020000040000FA
:1000000080314C28080008007E1480312E00161C18
:100010000A280B2813280C1C0E280F2813289531AA
:10002000A02580314A28161E162817281F280C1EC6
:100030001A281B281F289531ED2580314A280B1FCF
:10004000222823284A28991C262827282D288F1C57
:100050002A282B282D284A284A28191C30283128DC
:1000600037280F1C3428352837284A284A281A1CD4
:100070003A283B284A28101C3E283F284A28963117
:100080002A2680314A284A284A284A284A284A28C3
:100090004A284A287E10090080314E288731FE27E1
:1000A0008031FD00B2308400953085006A308600D2
:1000B0000030870006309531AC2580311A3084003D
:1000C00088308500B63086000030870003309531D7
:1000D000AC258031FC015C308400003085000E309E
:1000E0009531A6258031A0308400003085000E3087
:1000F0009531A62580317E1020008E31302E2000D3
:10010000C801C901C401C501C601C701CA01CB01AB
:10011000CC01CD01CE01CF01D001D101D201D3015B
:10012000D401D501D601D7016730A000F030A1007D
:100130009631A22680312000B6003608D4006C30FB
:10014000A000F030A1009631A22680312000B60038
:100150003608D5007230A000F030A1009631A226FA
:1001600080312000B6003608D6007730A000F0308D
:10017000A1009631A22680312000B6003608D700B3
:100180007830A000F030A1009631A2268031200006
:10019000B6003608D2007930A000F030A1009631C8
:1001A000A22680312000B6003608D3007A30A000A5
:1001B000F030A1009631A22680312000B60036082A
:1001C000CA007B30A000F030A1009631A226803119
:1001D0002000B6003608CB007C30A000F030A10033
:1001E0009631A22680312000B6003608CC007D3042
:1001F000A000F030A1009631A22680312000B60088
:100200003608CD007E30A000F030A1009631A22645
:1002100080312000B6003608CE007F30A000F030DC
:10022000A1009631A22680312000B6003608CF000A
:100230008030A000F030A1009631A226803120004D
:10024000B6003608D0008130A000F030A100963111
:10025000A22680312000B6003608D1005708B6002B
:10026000B7015608B800B90154085507BA00BB01D8
:10027000BB0D38083A07BC0039083B3DBD003608C5
:100280003C07BE0037083D3DBF003E08C8073F0899
:10029000C93D52085307B600B701B70D3608C80765
:1002A0003708C93D4E08B600B7014D08B800B9017E
:1002B0004C08BA00BB014A084B07BC00BD01BD0D8C
:1002C0003A083C07BE003B083D3DBF0038083E07EA
:1002D000C00039083F3DC10036084007C20037085A
:1002E000413DC3004208C8074308C93D5108B60054
:1002F000B7014F085007B800B901B90D36083807E3
:10030000BA003708393DBB003A08C8073B08C93D69
:100310008230A000F030A1009631A226803120006A
:10032000B6003608C7008330A000F030A100963137
:10033000A22680312000B6003608C6004608B60066
:10034000B7014708B800B9013808B900B801360844
:100350003807C4003708393DC50045084906031D64
:10036000B32944084806031DB629B729762A54083C
:10037000B60036082100B80020005508B60036083F
:100380002100AA0020005608B60036082100B70058
:1003900020005708B60036082100A90020005208A6
:1003A000B6003608E5000A30A0000030A10065085C
:1003B000B600B7013608A2003708A3008A31BF2271
:1003C000803120002008B8003808E9000A30A00079
:1003D0000030A1006508B600B7013608A200370852
:1003E000A30089318F21803120002008B80038080F
:1003F000E4005308B6003608E3000A30A0000030DD
:10040000A1006308B600B7013608A2003708A300B0
:100410008A31BF22803120002008B8003808E80067
:100420000A30A0000030A1006308B600B70136080A
:10043000A2003708A30089318F21803120002008D5
:10044000B8003808E2004A08B6003608FD004B083C
:10045000B6003608EF004C08B6003608EE000A3049
:10046000A0000030A1006E08B600B7013608A20057
:100470003708A3008A31BF22803120002008B8004D
:100480003808E7000A30A0000030A1006E08B6006E
:10049000B7013608A2003708A30089318F218031C7
:1004A00020002008B8003808DE004D08B6003608E5
:1004B000ED004E08031D5D2A5F2A0130602A0030DE
:1004C000B6003608DF004F08B6003608EA005008CC
:1004D000B6003608EB005108031D6F2A712A01305F
:1004E000722A0030B6003608EC004F2B6730A000AF
:1004F000F030A100210038082000B6003608A20024
:100500009731712780316C302000A000F030A100BD
:1005100021002A082000B6003608A2009731712772
:10052000803172302000A000F030A1002100370897
:100530002000B6003608A20097317127803177304D
:100540002000A000F030A100210029082000B60002
:100550003608A20097317127803178302000A00042
:10056000F030A1006508B6003608A2009731712767
:10057000803179302000A000F030A1006308B6007F
:100580003608A2009731712780317A302000A00010
:10059000F030A1007D08B6003608A200973171271F
:1005A00080317B302000A000F030A1006F08B60041
:1005B0003608A2009731712780317C302000A000DE
:1005C000F030A1006E08B6003608A20097317127FE
:1005D00080310A302000A0000030A1006E08B60073
:1005E000B7013608A2003708A3008A31BF22803144
:1005F00020002008B8003808E7000A30A0000030CA
:10060000A1006E08B600B7013608A2003708A300A3
:1006100089318F21803120002008B8003808DE00A1
:100620007D30A000F030A1006D08B6003608A200B1
:100630009731712780317E302000A000F030A1007A
:100640005F08B6003608A2009731712780317F30ED
:100650002000A000F030A1006A08B6003608A20011
:1006600097317127803180302000A000F030A10048
:100670006B08B6003608A2009731712780318130AF
:100680002000A000F030A1006C08B6003608A200DF
:100690009731712780318B31962380314F2B0800A1
:1006A0002000A201A20A552D611C572B582B5B2B51
:1006B00096175E2B5E2B96135E2B5E2B600803193C
:1006C000622B632B6C2B03307C02031C682B692B81
:1006D0006C2B16176F2B6F2B16136F2B6F2B22356E
:1006E0005C050319742B752B782B96167B2B7B2BB3
:1006F00096127B2B7B2B5C0822050319802B812B08
:10070000842B1616672D672D1612672D672D672D02
:1007100061188B2B8C2B8F2B9617672D672D9613BB
:10072000672D672D672D6118962B972B9A2B16171F
:10073000672D672D1613672D672D672D6118A12B67
:10074000A22BA52B9616672D672D9612672D672D68
:10075000672D6118AC2BAD2BB02B1616672D672DAE
:100760001612672D672D672D2208A0000230A035D4
:10077000FF3E031DB72B203569050319C02BC12B84
:10078000C42B9617C72BC72B9613C72BC72B220832
:10079000A0000130A035FF3E031DCA2B203569059E
:1007A0000319D32BD42BD72B1617DA2BDA2B1613CE
:1007B000DA2BDA2B223569050319DF2BE02BE32B2B
:1007C0009616E62BE62B9612E62BE62B69082205F9
:1007D0000319EB2BEC2BEF2B1616672D672D16123A
:1007E000672D672D672D2208A0000230A035FF3E3F
:1007F000031DF62B203564050319FF2B002C032C59
:100800009617062C062C9613062C062C2208A00000
:100810000130A035FF3E031D092C20356405031966
:10082000122C132C162C1617192C192C1613192CE4
:10083000192C2235640503191E2C1F2C222C961608
:10084000252C252C9612252C252C6408220503190D
:100850002A2C2B2C2E2C1616672D672D1612672D81
:10086000672D672D2208A0000230A035FF3E031D32
:10087000352C2035680503193E2C3F2C422C961749
:10088000452C452C9613452C452C2208A000013000
:10089000A035FF3E031D482C203568050319512C57
:1008A000522C552C1617582C582C1613582C582CE3
:1008B0002235680503195D2C5E2C612C9616642C7C
:1008C000642C9612642C642C680822050319692C88
:1008D0006A2C6D2C1616672D672D1612672D672D45
:1008E000672D2208A0000230A035FF3E031D742CA6
:1008F0002035620503197D2C7E2C812C9617842CC3
:10090000842C9613842C842C2208A0000130A0355E
:10091000FF3E031D872C203562050319902C912C76
:10092000942C1617972C972C1613972C972C22354E
:10093000620503199C2C9D2CA02C9616A32CA32C8D
:100940009612A32CA32C620822050319A82CA92C0B
:10095000AC2C1616672D672D1612672D672D672D87
:100960005F080319B42CB52CB82C1616672D672D0B
:100970001612672D672D672D2208A0000230A035C2
:10098000FF3E031DBF2C203567050319C82CC92C59
:10099000CC2C9617CF2CCF2C9613CF2CCF2C2208F3
:1009A000A0000130A035FF3E031DD22C2035670585
:1009B0000319DB2CDC2CDF2C1617E22CE22C16138F
:1009C000E22CE22C223567050319E72CE82CEB2CEE
:1009D0009616EE2CEE2C9612EE2CEE2C67082205C5
:1009E0000319F32CF42CF72C1616672D672D16120D
:1009F000672D672D672D2208A0000230A035FF3E2D
:100A0000031DFE2C20355E050319072D082D0B2D27
:100A100096170E2D0E2D96130E2D0E2D2208A000CA
:100A20000130A035FF3E031D112D20355E05031951
:100A30001A2D1B2D1E2D1617212D212D1613212D9C
:100A4000212D22355E050319262D272D2A2D9616D8
:100A50002D2D2D2D96122D2D2D2D5E0822050319DD
:100A6000322D332D362D1616672D672D1612672D54
:100A7000672D672D22356D0503193F2D402D432D20
:100A80009616462D462D9612462D462D6D082205AA
:100A900003194B2D4C2D4F2D1616672D672D161251
:100AA000672D672D672D672D672D6608A000A101B2
:100AB0002108003A03195D2D672D200884000D30B0
:100AC00004020318672D88310435003E82000800B7
:100AD000262F05302000B6003608E6003C2F0930EE
:100AE000B6003608E6003C2F0A30B6003608E600AD
:100AF0003C2F0C30B6003608E6003C2F0130B60023
:100B00003608E9070330A0000030A1006908B600EC
:100B1000B7013608A2003708A30089318F2185313B
:100B200020002008B8003808E90002306906031DDB
:100B30009A2D9B2DA12D64080339B6003608E400D8
:100B4000A12D0A30B6003608A00069088731E427D5
:100B5000853120006407B7003708E5007830A00031
:100B6000F030A1006508B6003608A2009731712761
:100B700085318B31962385313C2F01302000B60022
:100B80003608E407023069060319C72DC82DDC2D8D
:100B90000A30A0000030A1006408B600B701360892
:100BA000A2003708A30089318F2185312000200859
:100BB000B8003808E400DC2D02306906031DE12D81
:100BC000E22DE82D64080339B6003608E400E82D6C
:100BD0000A30B6003608A00069088731E42785315D
:100BE00020006407B7003708E5007830A000F03037
:100BF000A1006508B6003608A2009731712785313B
:100C00008B31962385313C2F01302000B600360809
:100C1000E8070630A0000030A1006808B600B70160
:100C20003608A2003708A30089318F2185312000C2
:100C30002008B8003808E8000A30B6003608A000DE
:100C400068088731E427853120006207B70037083C
:100C5000E3007930A000F030A1006308B600360848
:100C6000A2009731712785318B31962385313C2F36
:100C700001302000B6003608E2070A30A00000303C
:100C8000A1006208B600B7013608A2003708A30029
:100C900089318F21853120002008B8003808E20012
:100CA0000A30B6003608A00068088731E42785318D
:100CB00020006207B7003708E3007930A000F03069
:100CC000A1006308B6003608A2009731712785316C
:100CD0008B31962385313C2F20006008031D712E37
:100CE000722E3C2F5F080319762E782E0130792E54
:100CF0000030B6003608DF007E30A000F030A100E2
:100D00005F08B6003608A2009731712785318B3114
:100D1000962385313C2F3C2F01302000B600360849
:100D2000E7070630A0000030A1006708B600B70151
:100D30003608A2003708A30089318F2185312000B1
:100D40002008B8003808E70005306706031DA92E03
:100D5000AA2EAC2EDE01AC2E0A30B6003608A0005A
:100D600067088731E427853120005E07B700370820
:100D7000EE007C30A000F030A1006E08B60036080E
:100D8000A2009731712785318B31962385313C2F15
:100D900001302000B6003608DE070530670603196B
:100DA000D22ED32EE72E0A30A0000030A1005E081C
:100DB000B600B7013608A2003708A30089318F2199
:100DC000853120002008B8003808DE00E72E053005
:100DD0006706031DEC2EED2EEF2EDE01EF2E0A30FE
:100DE000B6003608A00067088731E4278531200067
:100DF0005E07B7003708EE007C30A000F030A1009D
:100E00006E08B6003608A2009731712785318B3104
:100E1000962385313C2F01302000B6003608ED07BF
:100E20006D080339B6003608ED007D30A000F030C3
:100E3000A1006D08B6003608A200973171278531F0
:100E40008B31962385313C2F3C2F3C2F20006608A8
:100E5000B600B7013708003A03192F2F3C2F360888
:100E6000FF3E031C3C2F84000C30040203183C2F6F
:100E7000903104351A3E82000800D02F0D1A412F00
:100E8000422FE32F60080319462F472F602F600879
:100E900003194B2F4D2F01304E2F0030F0007008FA
:100EA000E0007C086F02031C562F572F5E2F9531F0
:100EB000942587319631542687315E2FFC01E32F2C
:100EC000E601E60AE32FE32FE32F0D1A682F692FBF
:100ED000E32F0230F0007008E600E32FE32F0D1A35
:100EE000722F732FE32F0330F0007008E600E32F1A
:100EF000E32F0D1A7C2F7D2FE32F0430F0007008B4
:100F0000E600E32FE32F0D1A862F872FE32FE6014C
:100F1000E32FE32F0D1A8D2F8E2FE32F0630F000D5
:100F20007008E600E32FE32F0D1A972F982FE32F79
:100F30000730F0007008E600E32FE32F0D1AA12F11
:100F4000A22FE32F0830F0007008E600E32FE32F14
:100F50000D1AAB2FAC2FE32FE601E32FE32F0D1A71
:100F6000B22FB32FE32FE601E32FE32F0D1AB92F92
:100F7000BA2FE32F0B30F0007008E600E32FE32FC9
:100F80000D1AC32FC42FE32FE601E32FE32F0D1A11
:100F9000CA2FCB2FE32FE601E32FE32FE32FE32F1D
:100FA00020006608F000F1017108003A0319D92FFA
:100FB000E32F700884000D3004020318E32F9031F2
:100FC0000435003E820008002000A300A201E82FA3
:100FD000231CEB2FEC2FF12F2008A1002108A207E2
:100FE000F12F0310A00D0310A30C2308031DF92FEC
:100FF000FA2FE82FFB2F2208FD2F080003340800EA
:101000008331542B8331882B8331932B83319E2B57
:101010008331A92B8331B42B8331F32B8431322CD0
:101020008431712C8431B02C8431BC2C8431FB2C64
:1010300085313A2D0134033432346E302000A00063
:10104000F030A1006508B6003608A200973171277C
:1010500088316F302000A000F030A1006308B60096
:101060003608A20097317127883170302000A00027
:10107000F030A1006108B6003608A2009731712750
:10108000883171302000A000F030A1005D08B6006A
:101090003608A20097317127883172302000A000F5
:1010A000F030A100210037082000B6003608A20069
:1010B0009731712788318B31962388315F2808005A
:1010C00069302000A000F030A1006508B6003608A5
:1010D000A2009731712788316A302000A000F030DB
:1010E000A1006308B6003608A20097317127883145
:1010F0006B302000A000F030A1006108B600360877
:10110000A2009731712788316C302000A000F030A8
:10111000A10021002A082000B6003608A20097315D
:10112000712788316D302000A000F030A1005C08EC
:10113000B6003608A2009731712788318B3196238B
:101140008831A228080064302000A000F030A100FF
:101150006508B6003608A2009731712788316530DE
:101160002000A000F030A1006308B6003608A200FD
:1011700097317127883166302000A000F030A1003F
:101180006108B6003608A2009731712788316730B0
:101190002000A000F030A100210038082000B60097
:1011A0003608A20097317127883168302000A000EE
:1011B000F030A1005C08B6003608A2009731712714
:1011C00088318B3196238831E528080020009A0168
:1011D0009901960197019801073095000F30910011
:1011E000FF309200FF309300FF309400FF303E004C
:1011F000D900C730CE00EF30C3000730E4000F3015
:10120000B800DA01E501C4014030B9001830CF0060
:10121000E601BA01C501D001DB01FF30BB00FF30A0
:10122000C600FF30D100FF30DC000730E7004A1273
:101230004916481203302000A0000030A10095316B
:10124000DB2588312E0016160C303D00900013303F
:10125000C50014303E00A3001530A40014303D003A
:10126000C6000800F601F31F362937293F29F20985
:10127000F309F20A0319F30AF601F60A3F29F11FEE
:10128000422943294929F009F109F00A0319F10A11
:1012900049297008710403194E294F297E29F50147
:1012A000F50A5C290130F035F10D890B5329013025
:1012B000F4007408F5075C29F11F5F2960295229A1
:1012C0006229622971087302031D6829700872027D
:1012D000031C6B296C2971297008F2027108F33B19
:1012E00071290130F136F00C890B72290130F502B9
:1012F000031D7B297C2962297E297E297608031912
:10130000822983298929F209F309F20A0319F30AC8
:1013100089297308F1007208F0008E290800200066
:10132000A601A31F942995299D29A209A309A20A10
:101330000319A30AA601A60A9D29A11FA029A12974
:10134000A729A009A109A00A0319A10AA729200811
:1013500021040319AC29AD29DC29A501A50ABA2964
:101360000130A035A10D890BB1290130A40024085A
:10137000A507BA29A11FBD29BE29B029C029C029A6
:1013800021082302031DC62920082202031CC929A3
:10139000CA29CF292008A2022108A33BCF29013066
:1013A000A136A00C890BD0290130A502031DD92933
:1013B000DA29C029DC29DC2926080319E029E129DA
:1013C000E729A209A309A20A0319A30AE729230806
:1013D000A1002208A000EC290800F601F11FF12964
:1013E000F229FA29F009F109F00A0319F10AF601C4
:1013F000F60AFA29F31FFD29FE29082AF209F30942
:10140000F20A0319F30A0130F4007408F606082AF8
:10141000F701F8017008710403190F2A102A452AF0
:10142000F501F50A1D2A0130F035F10D890B142A5A
:101430000130F4007408F5071D2AF11F202A212A23
:10144000132A232A232A0130F735F80D890B242A81
:1014500071087302031D2E2A70087202031C312AC0
:10146000322A382A7008F2027108F33B7714382ABE
:101470000130F136F00C890B392A0130F502031DD9
:10148000422A432A232A452A452A76080319492A4B
:101490004A2A502AF709F809F70A0319F80A502AC4
:1014A0007808F1007708F000552A08002000BC00F9
:1014B0006C0803195C2A5D2A622AEC019631B22677
:1014C0008A31622A20006A08003EA000F03003182A
:1014D000F130A1003C08BB003B08A2009731712706
:1014E0008A3120006A08013EA000F0300318F13074
:1014F000A1003708BB003B08A200973171278A3151
:1015000020006A08023EA000F0300318F130A1006C
:101510003808BB003B08A200973171278A312000B0
:101520006A08033EA000F0300318F130A10039082A
:10153000BB003B08A200973171278A3120006A085E
:10154000043EA000F0300318F130A1003A08BB00BF
:101550003B08A200973171278A3105302000BB007B
:101560003B08EA0760306A02031CB72AB82ABA2A85
:10157000EA01BA2A9631C3268A31BE2A0800200021
:10158000A601A11FC42AC52ACD2AA009A109A00A23
:101590000319A10AA601A60ACD2AA31FD02AD12A7F
:1015A000DB2AA209A309A20A0319A30A0130A40095
:1015B0002408A606DB2AA701A80120082104031994
:1015C000E22AE32A182BA501A50AF02A0130A0354A
:1015D000A10D890BE72A0130A4002408A507F02AF1
:1015E000A11FF32AF42AE62AF62AF62A0130A735A3
:1015F000A80D890BF72A21082302031D012B2008BF
:101600002202031C042B052B0B2B2008A20221080D
:10161000A33B27140B2B0130A136A00C890B0C2BFC
:101620000130A502031D152B162BF62A182B182B9B
:10163000260803191C2B1D2B232BA709A809A70A71
:101640000319A80A232B2808A1002708A000282B8B
:1016500008002000A100210823008C00901F312BDE
:10166000322B352B952B952B952B0F301005200009
:10167000A0000830200603193E2B3F2B5D2B0F30B6
:10168000230010052000A0000B3020060319492B71
:101690004A2B5D2B230010164D2B2E000F1C512BB7
:1016A000522B4D2B23000F19562B572B952B0F0820
:1016B000952B952B952B952B952B0F3023001005F3
:1016C0002000A000083020060319672B682B752B1B
:1016D0000F30230010052000A0000B302006031D52
:1016E000722B732B952B752B752B23000F18792BD1
:1016F0007A2B752B7D2B7D2B7D2B23000F0C890CDA
:1017000001392000A000230011081F392000200407
:10171000031D8B2B8C2B7D2B23001108952B952BD8
:10172000952B952B952B952B952B08002000B2011E
:10173000B301B401B501210029082000A400A501CE
:10174000210037082000A600A701210038082A0739
:101750002000A800A901A90D26082807AA0027082B
:10176000293DAB0024082A07AC0025082B3DAD001D
:101770002C08B4072D08B53D65086307A400A50132
:10178000A50D2408B4072508B53D5F08A400A501F0
:101790006D08A600A7016E08A800A9017D086F07C3
:1017A000AA00AB01AB0D28082A07AC0029082B3D85
:1017B000AD0026082C07AE0027082D3DAF002408F9
:1017C0002E07B00025082F3DB1003008B4073108BE
:1017D000B53D6C08A400A5016A086B07A600A70127
:1017E000A70D24082607A8002508273DA9002808DA
:1017F000B4072908B53D3508A4002408B200340810
:10180000A4002408B3008230A000F030A100320808
:10181000A4002408A200973171278B318330200067
:10182000A000F030A1003308A4002408A2009731E2
:1018300071278B311B2C08002100AD01AD0A01304E
:10184000F90079082000E1073C306102031C292CD3
:101850002A2C592CE1010130F9007908E3070A30FC
:10186000F0000030F1006308F900FA017908F20095
:101870007A08F3008931ED218C317008FB007B0878
:101880002000E8000A30F0000030F1006308F900A1
:10189000FA017908F2007A08F300893132218C319B
:1018A0007008FB007B082000E2002100AC01AC0ABC
:1018B000592C3C3020006302031C5F2C602C932CBD
:1018C000E301E801E2010130F9007908E5070A3097
:1018D000F0000030F1006508F900FA017908F20023
:1018E0007A08F3008931ED218C317008FB007B0808
:1018F0002000E9000A30F0000030F1006508F9002E
:10190000FA017908F2007A08F300893132218C312A
:101910007008FB007B082000E4002100AC01AC0A49
:10192000AB01AB0A932C183020006502031C992CE4
:101930009A2CA12CE501E901E4012100AB01AB0ADD
:10194000A12C2E0010109531C0258C310800A92C37
:10195000A92C23000F0C890C01392000A2002300C0
:1019600011081F3920002204031DB72CB82CA92C04
:1019700023001114BB2C1118BE2CBF2CBB2CC22C65
:10198000C22CC22C23000F0C890C01392000A200AC
:10199000230011081F3920002204031DD02CD12C54
:1019A000C22CD22C9A308B3129238C31D82CD82CB4
:1019B00023000F0C890C01392000A200230011081C
:1019C0001F3920002204031DE62CE72CD82CE82C1C
:1019D00001308B3129238C31EE2CEE2C23000F0C9F
:1019E000890C01392000A200230011081F392000B2
:1019F0002204031DFC2CFD2CEE2C23009114002D41
:101A00009118032D042D002D072D072D072D2300E0
:101A10000F0C890C01392000A200230011081F3986
:101A200020002204031D152D162D072D172D9B3088
:101A30008B3129238C311D2D1D2D23000F0C890C7A
:101A400001392000A200230011081F3920002204C0
:101A5000031D2B2D2C2D1D2D2D2D97314E278C3117
:101A60002000A2002208A300362D362D23000F0CE3
:101A7000890C01392000A200230011081F39200021
:101A80002204031D442D452D362D230091161116D9
:101A9000492D111A4C2D4D2D492D502D502D502DC5
:101AA00023000F0C890C01392000A200230011082B
:101AB0001F3920002204031D5E2D5F2D502D2300B1
:101AC0001115622D1119652D662D622D2000231F21
:101AD0006A2D6B2DA72C6E2D6E2D6E2D23000F0CF5
:101AE000890C01392000A200230011081F392000B1
:101AF0002204031D7C2D7D2D6E2D23001114802DBD
:101B00001118832D842D802D872D872D872D23005F
:101B10000F0C890C01392000A200230011081F3985
:101B200020002204031D952D962D872D972D9A3088
:101B30008B3129238C319D2D9D2D23000F0C890C79
:101B400001392000A200230011081F3920002204BF
:101B5000031DAB2DAC2D9D2DAD2D00308B312923D8
:101B60008C31B32DB32D23000F0C890C01392000CB
:101B7000A200230011081F3920002204031DC12DDB
:101B8000C22DB32D23009114C52D9118C82DC92D38
:101B9000C52DCC2DCC2DCC2D23000F0C890C01395B
:101BA0002000A200230011081F3920002204031D79
:101BB000DA2DDB2DCC2DDC2D9B308B3129238C3184
:101BC000E22DE22D23000F0C890C01392000A20028
:101BD000230011081F3920002204031DF02DF12DD0
:101BE000E22DF22D97314E278C312000A2002208E1
:101BF000A300FB2DFB2D23000F0C890C01392000C5
:101C0000A200230011081F3920002204031D092E01
:101C10000A2EFB2D2300911611160E2E111A112ECD
:101C2000122E0E2E152E152E152E23000F0C890C9C
:101C300001392000A200230011081F3920002204CE
:101C4000031D232E242E152E23001115272E1119C6
:101C50002A2E2B2E272E2C2E200023082F2E080074
:101C6000973116278E318B170B171C302000A000E0
:101C70000C30A1009531E4258E313D302000A000CC
:101C80000730A1009531C9258E31963192268E31CB
:101C900080317F208E314C2E21002608031D512ECD
:101CA000522E5B2EA601A60A9531F7258E3195316D
:101CB0008B258E314C2E21002D080319602E612EAC
:101CC000922F200060080319662E672E792E7C085B
:101CD000031D6B2E6C2E732E953198258E31963107
:101CE00082268E31732E01302000D8005808FC0760
:101CF000792E7D0803197D2E7E2E8F2F7D08D8002A
:101D00005808A0006108973196278E31003A031DCC
:101D10008A2E8B2E8F2F00309631FD268E3120009B
:101D200021082100A100200020082100A000210896
:101D30002000D900210020082000D8000E30D9361C
:101D4000D80C890B9F2E5808DA005A08DC000000D6
:101D50008C31A7248E312000D8005808DD00000007
:101D600020005C086D020318B62EB72EBF2E5F0848
:101D70000319BB2EBC2EBF2EE001E00ABF2E5D086A
:101D80006E020318C42EC52ECD2E5F080319C92E6E
:101D9000CA2ECD2EE001E00ACD2E5C0821002706D8
:101DA0000319D32ED42EFE2E20005D082100280614
:101DB0000319DB2EDC2EFE2E20005D08D80058080B
:101DC0002100A80020005C08D80058082100A700C6
:101DD00020006308D8005808B7006108D9005908E6
:101DE000B8005D08DA005A08B9005C08DB005B083F
:101DF000BA0065088A3156228E31482F20005C08CF
:101E0000210027060319052F062F222F20005C082A
:101E1000D80058082100A70020006308D8005808FF
:101E2000B7006108D9005908B8005D08DA005A08FF
:101E3000B9005C08DB005B08BA0065088A315622ED
:101E40008E31482F20005D08210028060319292F14
:101E50002A2F482F20005D08D80058082100A8002C
:101E600020006308D8005808B7006108D900590855
:101E7000B8005D08DA005A08B9005C08DB005B08AE
:101E8000BA0065088A3156228E31482F482F482FD4
:101E900020005C082100290203184F2F502F5A2FD1
:101EA00020005C08D80058082100A9009731BD2700
:101EB0008E315A2F2100370820005C020318612F51
:101EC000622F6B2F5C08D80058082100B7008831BA
:101ED0001D208E316B2F20005D0821002A0203187F
:101EE000722F732F7D2F20005D08D8005808210025
:101EF000AA00883160208E317D2F21003808200013
:101F00005D020318842F852F8F2F5D08D800580895
:101F10002100B8008831A3208E318F2F8F2F210010
:101F2000AD01922F2C080319962F972FA92F7930E6
:101F30002000A000F030A1006308D8005808A200DB
:101F4000973171278E318B3196238E312100AC0170
:101F5000A92F2B080319AD2FAE2FC02F78302000EA
:101F6000A000F030A1006508D8005808A200973101
:101F700071278E318B3196238E312100AB01C02F1A
:101F80007C0820006F020318C62FC72FCE2F953173
:101F90009C258E31963163268E31CE2F2000660827
:101FA000031DD32FD42FDD2F6008031DD82FD92F69
:101FB000DD2F000063000000DD2F9531F7258E3105
:101FC00020008E1AE42FE52FF22F0E0E890C013916
:101FD000210036060319ED2FEE2FF22F85316825EB
:101FE0008E31F22F003020008E1A01302100B60011
:101FF000833150238E314C2E4C2E4C2E80314C2868
:1020000087313E2F8731652F87316F2F8731792FA9
:102010008731832F87318A2F8731942F87319E2FE5
:102020008731A82F8731AF2F8731B62F8731C02F47
:102030008731C72F8531692D85316F2D8531742DFD
:102040008531792D85317E2D8531BD2D8631042E4A
:102050008631382E86316C2E86318C2E8631C82EF4
:0420600087310B2F8A
:102B100025008E13080024000E14080025008E17CF
:102B2000080025008E13080095318825953108008E
:102B300095318E2595310800953191259531080004
:102B40002E000C1096310E2695310800640080018D
:102B50000131890BA72D0034FE0012001E00FE0B70
:102B6000AD2D003400340034013402341E340234FC
:102B70002F0096019701980199019A019B01080085
:102B800021003308F1003208F0009631D426953147
:102B90000800200021082100AF00200020082100AB
:102BA000AE000800623031008D008F0191010230CB
:102BB000930092010800200021082100B5002000A8
:102BC00020082100B4000800200021082100B100E5
:102BD000200020082100B00008003E004A1EF12D10
:102BE000F22DF62D963172269531F62D0800200033
:102BF0001612FA2D9612FC2D1613FE2D9613002E8A
:102C00000800803027008E0007308D0040308C0097
:102C100024001F08F33904389F00080021002E0803
:102C20002F040319142E152E1B2E2F088A002E0890
:102C30000A0096311B2E08002100300831040319C8
:102C4000222E232E292E31088A0030080A009631C0
:102C5000292E08002E00101021003308F100320840
:102C6000F0009631D426963196311C269631080014
:102C70002E000C100B1002302000A0000030A1002C
:102C80009531C92596312E00161408000130250013
:102C900090008F019101F9308D008C012E00901071
:102CA000803025008E00080055303D008F00AA308E
:102CB0008F000F103E00960155303D008F00AA3066
:102CC0008F000F14080055303D008F00AA308F0090
:102CD0000F103E00960155303D008F00AA308F0046
:102CE0000F1408002100340835040319782E792EBA
:102CF0007F2E35088A0034080A0096317F2E3E0068
:102D00004A12080055303D008F00AA308F000F1086
:102D10000E303E00960055303D008F00AA308F00E7
:102D20000F1408002300901A962E972EA12E8F01C3
:102D300028309000910103308D00A12EA12EA12EEC
:102D4000A12E08002000210830009B002000200850
:102D500030009A001E171E140000000030001C08EE
:102D6000B12E080081302000A000F030A1006C08D6
:102D7000B6003608A2009731712796318B31962321
:102D80009631C22E08007F302000A000F030A10054
:102D90006A08B6003608A2009731712796318B3148
:102DA00096239631D32E080024000E1DD82ED92E3E
:102DB000E02E0E1071088D0070088C000E14E52EA8
:102DC00071088D0070088C00E52E080022008E012D
:102DD0008F0190019101920193018D0121009E01CB
:102DE0009B0194019501960197019A01990198011F
:102DF0008030930001309D0008002000A3002308CC
:102E000021009E009317131313140000072F2100B5
:102E100013180B2F0C2F072F0D2F0D082000A100CA
:102E200021000C082000A000152F08009531B825BE
:102E300097318831E62097319531D22597319631F7
:102E4000012697319631E6269731963146269731FD
:102E500097312F2797319631382697310800240073
:102E60008F0190010430910086308D00E8308C0095
:102E70000D082100B30024000C082100B2002E0030
:102E800010101A14FF302000A0000730A100953167
:102E9000E4259731053024008E0008000F30230010
:102EA00010052000A000083020060319582F592FC4
:102EB000642F0F30230010052000A0000B302006E7
:102EC000031D632F642F682F23009115682F682F2F
:102ED00023000F1C6C2F6D2F682F6E2F0C08702F86
:102EE000080000308B1B01302000A30021083000B7
:102EF0009B002000200830009A00200022083000AB
:102F00009C001E171E158B1355309F00AA309F0082
:102F10009E148A2F9E188D2F8E2F8A2F1E1120000F
:102F2000230C031C8B1303188B1708002000A3002D
:102F30000830A1002108A400A5019E2F2308A100AC
:102F40000730A136890BA12F25352104A2002208C4
:102F5000A5000310A30D20082502031CB02FB12FDC
:102F6000B32F2008A5020130A402031DB82FB92FEA
:102F70009E2FBA2F2508BC2F080073302000A00018
:102F8000F030A1006508B6003608A200973171271D
:102F9000973174302000A000F030A1006308B60023
:102FA0003608A20097317127973175302000A000B4
:102FB000F030A1006108B6003608A20097317127F1
:102FC000973176302000A000F030A1005D08B600F7
:102FD0003608A20097317127973177302000A00082
:102FE000F030A100210029082000B6003608A20018
:102FF0009731712797318B3196239731FF2F080036
:020000040001F9
:0A000E00EC3FFF379F3FFF3FFF3F2D
:00000001FF
